:100000000C943D100C946E100C946E100C946E10A9
:100010000C946E100C946E100C946E100C946E1068
:100020000C946E100C946E100C946E100C946E1058
:100030000C946E100C946E100C946E100C946E1048
:100040000C946E100C94A3770C946E100C946E109C
:100050000C946E100C946E100C94AA700C94906D0D
:100060000C946E100C94ED770C94E3770C946E1056
:100070000C946E100C946E100C946E100C946E1008
:100080000C946E100C946E100C946E100C946E10F8
:100090000C946E100C946E100C946E100C94DA6D1F
:1000A0000C946E100C946E100C946E100C946E10D8
:1000B0000C946E100C946E100C946E100C946E10C8
:1000C0000C946E100C946E100C946E100C946E10B8
:1000D0000C946E100C946E100C946E100C946E10A8
:1000E0000C946E10084AD73B3BCE016E84BCBFFD1A
:1000F000C12F3D6C74319ABD56833DDA3D00C77FF8
:1001000011BED9E4BB4C3E916BAAAABE0000008090
:100110003F05A84CCDB2D44EB93836A9020C50B91F
:10012000918688083CA6AAAA2ABE000000803F004B
:100130000C9445110C948A160C94D3280C9489784D
:100140000C943B160C9418110C941F2A0C949412C6
:100150000C949C780C942A120C948B280C941411F7
:100160000C943A160C946A290C94A8120C94E0286A
:100170000C94F0790C94C5280C9467120C94B91661
:100180000C946B2B0C94BB280C9490280C941E2977
:100190000C941C110C94B32A0C948E2A0C94C22833
:1001A0000C94472B0C9471100C94B4290C94E728F0
:1001B0000C9422120C945D120C94D9290C94977013
:1001C0000C946D810C94DD280C94692A0C94C82839
:1001D0000C9453110C9481700C947E780C94D82A52
:1001E0000C94E3280C9462700C943B110C945D16F3
:1001F0000C944A290C946F780C9494700C94E91028
:100200000C94EA280C944A160C94B2120C948A129C
:100210000C94576F0C9475700C942F120C943478C6
:100220000C94D6280C9443120C944F110C94291161
:100230000C948F290C944D120C9441110C9439128A
:100240000C94FD2A0C94D9280C9455120C94907897
:100250000C9494780C945D700C94442A0C94BC1209
:100260000C94A8780C947B120C94CC280C944E110E
:100270000C94FC290C94A0780C9423110C940E116E
:100280000C94222B0C9471120C9498780C942D11D0
:100290000C9433110C9437110C9470100C942011A1
:1002A0000C94CF280C949E120C9449110C94476F17
:1002B0000C94BE284E414E494E495459494E46CDA4
:1002C000CCCC3D0AD7233C17B7D13877CC2B32950D
:1002D00095E6241FB14F0A000020410000C84200EB
:1002E000401C4620BCBE4CCA1B0E5AAEC59D7400B5
:1002F000407A10F35A00A0724E18090010A5D4E8F5
:100300000000E87648170000E40B54020000CA9A87
:100310003B000000E1F505000080969800000040D9
:10032000420F000000A0860100000010270000001E
:1003300000E803000000006400000000000A000064
:100340000000000100000000002C76D888DC674F18
:100350000823DFC1DFAE59E1B1B796E5E3E453C648
:100360003AE651997696E8E6C28426EB898C9B6240
:10037000ED407C6FFCEFBC9C9F40F2BAA56FA5F4EA
:1003800090055A2AF75C936B6CF9676DC11BFCE012
:10039000E40D47FEF520E6B500D0ED902E03009465
:1003A0003577050080841E080000204E0A000000FA
:1003B000C80C333333330F986E12831141EF8D2104
:1003C00014893BE65516CFFEE6DB18D1844B381B6B
:1003D000F77C1D901DA4BBE424203284725E228130
:1003E00000C9F124ECA1E53D275A5F53544F505FFB
:1003F00050494E005A5F535445505F50494E005A81
:100400005F4D41585F50494E005A5F454E41424C46
:10041000455F50494E005A5F4449525F50494E0073
:10042000595F53544F505F50494E00595F535445E4
:10043000505F50494E00595F4D494E5F50494E0044
:10044000595F454E41424C455F50494E00595F440B
:1004500049525F50494E00585F53544F505F5049C6
:100460004E00585F535445505F50494E00585F4D01
:1004700041585F50494E00585F454E41424C455FE0
:1004800050494E00585F4449525F50494E00534511
:1004900052564F335F50494E00534552564F325FCC
:1004A00050494E00534552564F315F50494E00530C
:1004B0004552564F305F50494E00534453530052FB
:1004C000414D50535F44395F50494E0052414D50A9
:1004D000535F44385F50494E0052414D50535F4482
:1004E00031305F50494E004D4158363637355F53F5
:1004F000535F50494E004C45445F50494E004845BB
:10050000415445525F4245445F50494E0048454181
:100510005445525F305F50494E0046414E5F50494E
:100520004E0045315F535445505F50494E004531B0
:100530005F454E41424C455F50494E0045315F4456
:1005400049525F50494E0045315F43535F50494E19
:100550000045305F535445505F50494E0045305F71
:10056000454E41424C455F50494E0045305F44493D
:10057000525F50494E00455F4D5558325F50494ECD
:1005800000455F4D5558315F50494E00455F4D5510
:1005900058305F50494E00434153455F4C494748EE
:1005A000545F50494E004A4F595F585F50494E00C2
:1005B0004156525F53535F50494E004156525F536C
:1005C000434B5F50494E004156525F4D4F53495F78
:1005D00050494E004156525F4D49534F5F50494E6E
:1005E0000054584430005258443000434F4D4D554C
:1005F0004E49434154494F4E0044525952554E00C2
:100600004552524F525300494E464F004543484FC2
:1006100000627573793A2070617573656420666F46
:100620007220696E7075740A00627573793A207071
:10063000617573656420666F7220757365720A0058
:10064000627573793A2070726F63657373696E6750
:100650000A002121204B494C4C206361757365646D
:1006600020627920746F6F206D75636820696E61F8
:1006700063746976652074696D65202D20637572D9
:1006800072656E7420636F6D6D616E643A20005008
:1006900072696E7465722073746F70706564206423
:1006A000756520746F206572726F72732E204669B3
:1006B0007820746865206572726F7220616E6420A4
:1006C000757365204D39393920746F2072657374E4
:1006D0006172742E202854656D7065726174757234
:1006E000652069732072657365742E2053657420CC
:1006F00069742061667465722072657374617274C6
:10070000696E67290A004E6F20436865636B7375D5
:100710006D2077697468206C696E65206E756D62F6
:1007200065722C204C617374204C696E653A200010
:10073000636865636B73756D206D69736D61746358
:10074000682C204C617374204C696E653A20004C13
:10075000696E65204E756D626572206973206E6FDB
:1007600074204C617374204C696E65204E756D6207
:1007700065722B312C204C617374204C696E653A84
:1007800020004D313130006563686F3A0045727268
:100790006F723A0050574D3A2020253464002020D3
:1007A0002020434F4D002020206E6F6E2D7374610A
:1007B0006E646172642050574D206D6F6465002037
:1007C0002020636F6D7061726520696E746572724E
:1007D00075707420656E61626C6564002020206F06
:1007E000766572666C6F7720696E7465727275706B
:1007F0007420656E61626C6564002020202054497D
:100800004D534B00423A20002020202054434352B5
:1008100000413A20002020202043533A200020208D
:10082000202057474D3A20002020202054494D4594
:10083000520020697320616C736F207469656420B5
:10084000746F20746869732070696E0054494D4557
:10085000523143000A202E002020506F72743A203B
:1008600000202020416E616C6F6720696E203D2062
:1008700025356C64003C756E757365642F756E6B01
:100880006E6F776E3E0020284125326429202000BB
:10089000253364200050494E3A20004F757470751E
:1008A00074203D2000496E70757420203D2000703A
:1008B000726F7465637465642000446F6E652E0A00
:1008C0000050756C73696E6720202000556E746F40
:1008D00075636865642000534552564F206E6F74EF
:1008E000207365742075702E0A00576174636869FF
:1008F0006E672070696E730A0064697300656E64C8
:1009000073746F70206D6F6E69746F722000204970
:100910006E76616C696420657874727564657220A6
:1009200000446966663A200046726F6D5374703AEF
:1009300000537465707065723A005261773A2020F6
:100940002020000A4C6F676963616C3A00436F7541
:100950006E7420453A004361703A0047322F4733A6
:100960002062616420706172616D65746572730AE2
:1009700000507265737375726520736574746C656D
:100980006420746F6F206C6F772C206D75737420EA
:1009900062652067726561746572207468616E209B
:1009A00000526573656E643A200023646566696E63
:1009B000652044454641554C545F004B6420004B34
:1009C0006920004B702000504944204175746F74B9
:1009D000756E652066696E6973686564212050755F
:1009E0007420746865206C617374204B702C204BEC
:1009F0006920616E64204B6420636F6E7374616E56
:100A000074732066726F6D2062656C6F7720696EFB
:100A1000746F20436F6E66696775726174696F6E7B
:100A20002E680A00504944204175746F74756E65D4
:100A3000206661696C6564212074696D656F7574E9
:100A40000A00504944204175746F74756E652066C4
:100A500061696C6564212054656D7065726174759F
:100A6000726520746F6F20686967680A00204B64A4
:100A70003A2000204B693A2000204B703A20000AAF
:100A800020436C617373696320504944200A000A53
:100A9000204E6F206F76657273686F6F740A002046
:100AA00054753A2000204B753A2000206D61783A49
:100AB0002000206D696E3A200020643A20002062F8
:100AC0006961733A2000504944204175746F747510
:100AD0006E652073746172740A0050494420417538
:100AE000746F74756E65206661696C65642120425F
:100AF0006164206578747275646572206E756D62CC
:100B000065720A0048617264636F646564204465BD
:100B10006661756C742053657474696E6773204CDC
:100B20006F616465640A003B200020490020204D6D
:100B300033303420500020204D33303120500050CD
:100B400049442073657474696E67733A0020204DC0
:100B5000323036205800486F6D65206F66667365C9
:100B6000743A00204A0020204D32303520420041A6
:100B70006476616E6365643A20423C6D696E5F73B2
:100B800065676D656E745F74696D655F75733E2032
:100B9000533C6D696E5F66656564726174653E2085
:100BA000543C6D696E5F74726176656C5F666565F5
:100BB00064726174653E204A3C6A756E635F646569
:100BC000763E0020204D3230342050004163636572
:100BD0006C65726174696F6E2028756E6974732F0D
:100BE0007332293A20503C7072696E745F6163639E
:100BF000656C3E20523C726574726163745F616320
:100C000063656C3E20543C74726176656C5F616311
:100C100063656C3E0020204D3230312058004D611C
:100C200078696D756D20416363656C657261746987
:100C30006F6E2028756E6974732F7332293A002005
:100C4000204D3230332058004D6178696D756D202C
:100C50006665656472617465732028756E69747366
:100C60002F73293A00537465707320706572207574
:100C70006E69743A0020204D3230302044300A0032
:100C800020204D3230302044002044697361626C72
:100C900065640A0046696C616D656E7420736574E5
:100CA00074696E67733A0020286D6D290020204713
:100CB0003231202020203B20556E69747320696EEC
:100CC000206D6D006F70656E005452494747455264
:100CD0004544007A5F6D617800795F6D696E0078D8
:100CE0005F6D6178005265706F7274696E67206520
:100CF0006E6473746F70207374617475730A005737
:100D000061726E696E673A20486F6D696E67204246
:100D1000756D702044697669736F72203C20310ACA
:100D20000020436F756E7420583A00626564002C91
:100D30002073797374656D2073746F7070656421AE
:100D4000204865617465725F49443A2000507269B9
:100D50006E7465722068616C7465642E206B696CBA
:100D60006C28292063616C6C6564210A00457272ED
:100D70003A204D415854454D50004D415854454D31
:100D80005020747269676765726564004572723AD3
:100D9000204D494E54454D50004D494E54454D50FF
:100DA00020747269676765726564000A0A00202012
:100DB0005A5F4D41583A002020595F4D494E3A0044
:100DC0002020585F4D41583A00202F002042403AE1
:100DD0000020403A002020506C616E6E65724275B2
:100DE0006666657242797465733A200020467265C2
:100DF00065204D656D6F72793A2000436F6D7069A3
:100E00006C65643A205365702031362032303235BB
:100E10000A00204C61737420557064617465643AF3
:100E200020323032302D30332D3234207C20417549
:100E300074686F723A20286E6F6E652C2064656648
:100E400061756C7420636F6E666967290A00322EC3
:100E5000302E352E320A004D61726C696E002053BF
:100E60006F6674776172652052657365740A00203D
:100E70005761746368646F672052657365740A0014
:100E80002042726F776E206F75742052657365749F
:100E90000A002045787465726E616C205265736536
:100EA000740A00506F77657255700A0046616E20B3
:100EB00053746174653A2000250A0048756D6964B1
:100EC0006974793A2000656E6473746F707320687A
:100ED00069743A20006F6B0048756D6964696679C2
:100EE000696E67207468726573686F6C64207761DF
:100EF000732073657420746F3A2000447279696EB0
:100F000067207468726573686F6C64207761732002
:100F100073657420746F3A200048756D6964697454
:100F2000792073656E736F722069732064697361D1
:100F3000626C6564210A0048756D69646974792082
:100F400073656E736F7220697320656E61626C6584
:100F500064210A0043617365206C696768743A20F4
:100F60006F6E0A0043617365206C696768743A208C
:100F70006F66660A00454550524F4D2064697361A3
:100F8000626C65640A00546F6F206661722066723D
:100F90006F6D207265666572656E636520706F693E
:100FA0006E740A00426164204932432061646472B5
:100FB0006573732028382D313237290A0020646187
:100FC00074613A002062797465733A003A2066725F
:100FD0006F6D3A006932632D7265706C7900426101
:100FE000642069326320726571756573740A00202C
:100FF000643A0020693A0020703A00496E76616CCC
:1010000069642065787472756465720A0020466CA4
:101010006F773A200046523A0020204D61783A20FE
:101020000020204D696E3A2000536F667420656E73
:101030006473746F70733A20003F4A206F75742098
:101040006F662072616E67652028302E3031207403
:101050006F20302E33290A002054002052004163B3
:1010600063656C65726174696F6E3A2050002F2F52
:1010700020004348414D4245525F54454D50455232
:101080004154555245004D4F54494F4E5F4D4F44CA
:10109000455300544845524D414C5F50524F5445C2
:1010A0004354494F4E004155544F5245504F5254AE
:1010B0005F53445F5354415455530050524F4D5069
:1010C000545F535550504F525400454D455247457B
:1010D0004E43595F50415253455200434153455F7F
:1010E0004C494748545F4252494748544E45535330
:1010F00000544F47474C455F4C49474854530053B1
:101100004F4654574152455F504F57455200425544
:10111000494C445F50455243454E54004C4556455A
:101120004C494E475F44415441005A5F50524F4230
:1011300045004155544F4C4556454C005052494E80
:10114000545F4A4F420050524F475245535300415B
:1011500055544F5245504F52545F54454D500056D0
:101160004F4C554D455452494300454550524F4D03
:101170000042494E4152595F46494C455F545241E5
:101180004E534645520053455249414C5F584F4ECD
:101190005F584F4646004649524D574152455F4EB3
:1011A000414D453A4D61726C696E20322E302E35BC
:1011B0002E3220284769744875622920534F5552B2
:1011C00043455F434F44455F55524C3A68747470D1
:1011D000733A2F2F6769746875622E636F6D2F4D98
:1011E00061726C696E4669726D776172652F4D61CF
:1011F000726C696E2050524F544F434F4C5F5645AE
:101200005253494F4E3A312E30204D414348494EBA
:10121000455F545950453A3344205072696E7465A5
:10122000722045585452554445525F434F554E54D1
:101230003A3120555549443A6365646532613266F6
:101240002D343161322D343734382D396231322D1D
:101250006335356336326633363766660A002057A3
:101260003A004D3131332053006F666600444542E9
:1012700055473A0050726F74656374656420506915
:101280006E0A00496E76616C69642050696E204D6B
:101290006F64650A002569792025696420256968DD
:1012A0002025696D20256973005072696E74207461
:1012B000696D653A200048323A0054323A0046726D
:1012C000657175656E63792073686F756C642062F3
:1012D0006520657175616C206F72206C6573732079
:1012E0007468616E3A00506C6561736520496E7375
:1012F00065727420746865206672657175656E63C9
:10130000792077616E7465640A000950723A200092
:1013100050733A2000506C6561736520496E7365A7
:1013200072742074686520707265737375726520BD
:1013300077616E7465640A0020483A00543A0046AA
:101340006F7263655B4E5D3A0050726573737572C0
:10135000655B7073695D3A00526177446174613A0C
:10136000004D6173735B67725D3A0020746F6F208C
:101370006C6F6E6720657874727573696F6E20701C
:10138000726576656E7465640A00486F6D65202528
:10139000732573257320466972737400220A005501
:1013A0006E6B6E6F776E20636F6D6D616E643A2049
:1013B0002200205A3A0020593A00204500205A00C5
:1013C000205900204D393220580070012C01900125
:1013D0002701B0012201C0011D01F0011801100216
:1013E000130130020E016002090190020401C002E3
:1013F000FF000003FA004003F5008003F000D00373
:10140000EB002004E6007004E100E004DC0040058D
:10141000D700C005D2004006CD00D006C800800726
:10142000C3003008BE00F008B900C009B400B00A1B
:10143000AF00B00BAA00D00CA500000EA000500F0A
:101440009B00C01096005012910000148C00C01533
:101450008700B0178200B0197D00D01B7800001EF5
:10146000730040206E0090226900F0246400402741
:101470005F0090295A00E02B5500102E50002030BC
:101480004B0010324600E033410090353C001037ED
:10149000370070383200A0392D00B03A2800A03B48
:1014A0002300603C1E00103D1900903D1400103ECA
:1014B0000F00703E0A00C03E0500003F0000403FA4
:1014C000FBFF803FF6FFC03FF1FF5406102F501185
:1014D0004F2C0B0C0A30083507174418FF43170927
:1014E000000147004800000088008A008C00B3001B
:1014F000B400000098009A009C00A800AA00AC006C
:1015000028012A012C01440045006E008000810062
:101510006F00B000B1007000900091007100A00059
:10152000A1007200200121017300E6050001E10520
:101530000101D4053201C7053301BB053401B005F3
:101540003501A6050501970529018C0528018105AE
:101550002A0176052C016B0535015D050701510552
:10156000080147052C013C0522012E051E0122051C
:1015700024011A0509010D051801FE041701F604DE
:101580000D01E7044201D8053201CB053301D9042E
:101590001801CC041701BF040901BF053401BA04C6
:1015A0003501AF040B01A4040601990405018E0462
:1015B0000401EF04350184040601770410016D0471
:1015C0002F016204540157042F014D0411014004FE
:1015D0004F0136042C012B04500120042C01160469
:1015E0000C0109040A01FF033001F4030B01E903B4
:1015F0003001000002430000484300009643000011
:101600000000000000000000000000009643000001
:1016100096430000A0400000A0400000C842000027
:10162000C8420000C8430000C844B80B0000B80B13
:1016300000002C01000010270000ABAAA642ABAAB4
:10164000A642555585410202020000A0400000A0BC
:10165000400000803F24F4D43050C38E20C2A2400A
:1016600017828B7011127A910D816CD90AA861E1F1
:1016700008C7586607615143061E4B5D05C145A763
:10168000041A411104093D9803713931034036DBD6
:101690000265339102D4305402802E1D02632CEE79
:1016A00001752AC501B028A001102781018F25648A
:1016B000012B244B01E0223401AC211F018D200DB0
:1016C00001801FFC00841EED00971DDF00B81CD2B6
:1016D00000E61BC600201BBC00641AB200B219A8A9
:1016E000000A19A0006A189900D117910040178BC1
:1016F00000B516840031167E00B31579003A1573D3
:1017000000C7146F0058146A00EE13660088136354
:101710000025135E00C7125B006C125700151254AF
:1017200000C111510070114F0021114B00D610491A
:10173000008D1047004610440002104200C00F40C8
:1017400000800F3E00420F3C00060F3B00CB0E38DE
:1017500000930E37005C0E3500270E3400F30D3277
:1017600000C10D3100900D3000600D2E00320D2DA6
:1017700000050D2C00D90C2B00AE0C2900850C297E
:10178000005C0C2700350C27000E0C2600E80B240B
:1017900000C40B2400A00B23007D0B23005A0B2157
:1017A00000390B2100180B2000F80A1F00D90A1E6F
:1017B00000BB0A1E009D0A1D00800A1D00630A1C52
:1017C00000470A1B002C0A1B00110A1A00F7091A0D
:1017D00000DD091900C4091900AB091900920917A5
:1017E000007B091800630917004C0916003609161A
:1017F00000200916000A091500F5081500E0081474
:1018000000CC081400B8081400A4081400900813B1
:10181000007D0812006B08130058081200460812D9
:1018200000340811002308110012081100010811EA
:1018300000F0071000E0071000D0071000C00710EC
:1018400000B0070F00A107100091070E0083070FDB
:101850000074070F0065070E0057070E0049070EBA
:10186000003B070D002E070E0020070D0013070D8B
:101870000006070D00F9060C00ED060D00E0060C51
:1018800000D4060C00C8060C00BC060C00B0060C08
:1018900000A4060B0099060C008D060B0082060BB7
:1018A0000077060B006C060B0061060A0057060B5A
:1018B000004C060A0042060A0038060A002E060AF4
:1018C0000024060A001A060A001006090007060A84
:1018D00000FD050900F4050900EB050900E2050912
:1018E00000D9050900D0050900C7050900BE050992
:1018F00000B5050800AD050800A50509009C050810
:1019000000940508008C050800840508007C050883
:1019100000740508006C050700650508005D0507F3
:1019200000560508004E050700470507004005085A
:101930000038050700310507002A050700230507C1
:10194000001C050600160507000F05070008050620
:101950000002050700FB040600F5040700EE04067C
:1019600000E8040600E2040700DB040600D50406D4
:1019700000CF040600C9040600C3040600BD040627
:1019800000B7040600B1040500AC040600A6040676
:1019900000A00405009B04060095040500900406C1
:1019A000008A04050085040500800406007A040509
:1019B0000075040500700405006B0405006604054D
:1019C00000610405005C040500570405005204058D
:1019D000004D04050048040500430405003E0404CE
:1019E000003A04050035040500300404002C040509
:1019F0000027040400230405001E0404001A040444
:101A00000016040500110404000D04040009040577
:101A1000000404040000040400FC030400F80304B0
:101A200000F4030400F0030400EC030400E80304E2
:101A300000E4030400E0030400DC030400D8030412
:101A400000D4030400D0030400CC030400C8030343
:101A500000C503030024F404D9201BC40C5C0E98B9
:101A600004C4095F0265077101F405F900FB04B3C2
:101A70000048048700C1036900580355000303456B
:101A800000BE023A008402310053022A00290225D6
:101A90000004022000E4011C00C8011900AF011776
:101AA00000980114008401130071011000610110FD
:101AB0000051010E0043010D0036010B002B010BFC
:101AC0000020010B00150109000C010900030108A9
:101AD00000FB000800F3000800EB000700E400062C
:101AE00000DE000600D8000600D2000600CC00058B
:101AF00000C7000500C2000500BD000400B90004D5
:101B000000B5000400B1000400AD000400A9000409
:101B100000A5000300A20003009F0004009B000337
:101B2000009800030095000200930003009000035A
:101B3000008D0002008B0003008800020086000276
:101B40000084000300810002007F0002007D00028B
:101B5000007B00020079000200770001007600029D
:101B6000007400020072000100710002006F0002A8
:101B7000006D0001006C0002006A000100690002B3
:101B800000670001006600010065000100640002BA
:101B9000006200010061000100600001005F0002BE
:101BA000005D0001005C0001005B0001005A0001C3
:101BB00000590001005800010057000100560001C3
:101BC00000550001005400010053000000530001C3
:101BD000005200010051000100500001004F0001BF
:101BE000004E0000004E0001004D0001004C0001BD
:101BF000004B0000004B0001004A000100490001B9
:101C000000480000004800010047000100460000B5
:101C100000460001004500000045000100440001AD
:101C200000430000004300010042000000420001A8
:101C3000004100000041000100400001003F0000A1
:101C4000003F0001003E0000003E0001003D00009A
:101C5000003D0001003C0000003C0000003C000191
:101C6000003B0000003B0001003A0000003A000188
:101C70000039000000390001003800000038000081
:101C80000038000100370000003700010036000076
:101C9000003600000036000100350000003500006D
:101CA0000035000100340000003400000034000161
:101CB0000033000000330000003300010032000058
:101CC000003200000032000100310000003100004D
:101CD0000031000100300000003000000030000141
:101CE000002F0000002F0000002F0000002F000137
:101CF000002E0000002E0000002E0001002D00002C
:101D0000002D0000002D0000002D0001002C00001F
:101D1000002C0000002C0000002C0001002B000013
:101D2000002B0000002B0000002B0001002A000007
:101D3000002A0000002A0000002A000100290000FB
:101D400000290000002900000029000000290001EE
:101D500000280000002800000028000000280000E3
:101D600000280001002700000027000000270000D5
:101D700000270000002700010026000000260000C8
:101D800000260000002600000026000100250000BB
:101D900000250000002500000025000000250000AF
:101DA00000250001002400000024000000240000A1
:101DB0000024000000240001002300000023000094
:101DC0000023000000230000002300000023000087
:101DD0000023000100220000002200000022000079
:101DE000002200000022000000220001002100006B
:101DF000002100000021000000210000002100005F
:101E0000002100000021000100200000002000004F
:101E10000020000000200000002000000020000042
:101E20000020000000200001001F0000001F000033
:101E3000001F0000001F0000001F0000001F000026
:101E4000001F0001001E0000001E0000001E000018
:101E5000001E000000043700001E290000511B0076
:101E6000005810000010090000CC040000780200A7
:101E700000410100001000AA03F0013A0190022283
:101E80000130031001D00302017004F7001005EDCA
:101E900000B005E5005006DD00F006D7009007D140
:101EA000003008CC00D008C7007009C300100ABE7B
:101EB00000B00ABB00500BB700F00BB300900CB0A1
:101EC00000D00DAA00100FA5005010A00090119B8B
:101ED00000D0129600B014900090168B00701885F8
:101EE00000501A8000301C7B00B01E750030216F3E
:101EF00000B02369003026640010285F00902A5A41
:101F000000702C5500F02E4F0070314800B0324563
:101F100000F0334100703639001037370050383345
:101F20000090392D00D03A2700B03C1C00503D17DE
:101F300000F03D1100903E0900D03FE5FF00002178
:101F400000240027002A002D00300033000101008A
:101F500000040107010A01000020002300260029D7
:101F6000002C002F003200000100000301060109CF
:101F70000100000A0B02090C0D0E08070304010002
:101F80000000000000000000000000000000000051
:101F9000000000000000000000000000001211100E
:101FA0000000000000000000000000000000000031
:101FB0000000000000000001FF01000002430000DB
:101FC0000000000096430C0607060006F905EB0525
:101FD00000002200250028002B002E0031003400D4
:101FE00002010000050108010B01050505050705B3
:101FF00008080808020202020A0A08080404040485
:1020000001010101010101010303030303030303B0
:10201000040707070C0C0C0C0C0C0C0C020202023F
:1020200006060606060606060B0B0B0B0B0B0B0B28
:1020300001021020200808102040102040800201DA
:1020400002010804020101020408102040808040BF
:1020500020100804020180040201804020100804BE
:10206000020108040201010204081020408001025C
:10207000040810204080F0796D8111241FBECFEF3D
:10208000D1E2DEBFCDBF00E00CBF13E0A0E0B2E0C4
:10209000EEE8F1E201E00BBF02C007900D92A23121
:1020A000B107D9F72DE0A2E1B3E001C01D92A1393B
:1020B000B207E1F710E1CCE3D0E100E006C02197E0
:1020C0000109802FFE010E947D8DCB33D10780E076
:1020D0000807A9F70E943D7B0C94B5900C94000072
:1020E00008950895CF92DF92EF92FF921F93CF93BE
:1020F000DF93EC018E818C3009F44DC038F48B30C5
:10210000E1F060E070E080EC9FE73DC085518230F7
:10211000C0F71A81612F70E0762F662766277F77D8
:102120008B81682B90E080E00E94D1862DEC3CEC06
:102130004CEC5DE30E94328748C06A8170E090E019
:1021400080E00E94D1866B017C01CB81C7FF0AC071
:10215000AC019B0160E070E080E89FEB0E94858D00
:102160006B017C01CF706C2F70E090E080E00E94EA
:10217000D3862DEC3CEC4CEC5DE30E943287A7014A
:1021800096010E94868DDF91CF911F91FF90EF9075
:10219000DF90CF9008951A81612F70E090E080E089
:1021A0000E94D1866B017C016B816F7070E090E0C2
:1021B00080E00E94D3862DEC3CEC4CEC5DE30E9469
:1021C0003287A70196010E94868D17FFDCCF9058B9
:1021D000DACF8091EF0C9091F00C891B990B089548
:1021E0008150823108F05AC0E82FF0E08827E4508F
:1021F000FF4E8F4F0C947D8D1C1120110E11141168
:1022000018114E11231129112D11331137113B11C2
:10221000411145114E1149114F1153118091800008
:102220008F77809380000895809180008F7DF9CF13
:1022300080918000877FF5CF84B58F7784BD089526
:1022400084B58F7DFBCF8091B0008F778093B000F5
:1022500008958091B0008F7DF9CF809190008F77A5
:10226000809390000895809190008F7DF9CF8091A8
:102270009000877FF5CF8091A0008F778093A0009A
:1022800008958091A0008F7DF9CF8091A000877F75
:10229000F5CF809120018F77809320010895809160
:1022A00020018F7DF9CF80912001877FF5CFCF93DB
:1022B000DF93282F30E0F901EF58F04E8491F901B7
:1022C000E05DFF4DD491F901E651F04EC491CC236D
:1022D000A1F081110E94F010EC2FF0E0EE0FFF1F33
:1022E000E95AF04EA591B491EC91ED2381E090E094
:1022F00009F480E0DF91CF91089580E090E0FACF7B
:102300001F93CF93DF93282F30E0F901EF58F04E61
:102310008491F901E05DFF4DD491F901E651F04E51
:10232000C491CC23A9F0162F81110E94F010EC2F3C
:10233000F0E0EE0FFF1FE053F04EA591B4918FB780
:10234000F894EC91111108C0D095DE23DC938FBF77
:10235000DF91CF911F910895DE2BF8CFCF93DF93BC
:1023600090E0FC01E05DFF4D24918651904EFC0110
:1023700084918823C9F090E0880F991FFC01E35CE9
:10238000F04EA591B491FC01E053F04EC591D4916B
:1023900061110DC09FB7F8948C91209582238C9386
:1023A0008881282328839FBFDF91CF9108956230D1
:1023B00051F49FB7F8943C91822F809583238C939E
:1023C000E8812E2BEFCF8FB7F894EC912E2B2C9326
:1023D0008FBFEACF1F93CF93DF93182FEB0161E0FC
:1023E0000E94AE11209739F460E0812FDF91CF91E8
:1023F0001F910C948011CF3FD10511F461E0F5CF0E
:10240000E12FF0E0EF58F04EE491E150E23108F0B6
:10241000B3C0F0E08827E05FFD4E8F4F0C947D8DB8
:1024200022122A122F1239124312BC124D125512C7
:102430005D12671271127B128A129412BC129E12E4
:10244000A812B21284B5806884BDC7BDDF91CF9158
:102450001F91089584B5806284BDC8BDF7CF809177
:102460008000806880938000D0938900C0938800AA
:10247000EDCF80918000806280938000D0938B00AC
:10248000C0938A00E3CF80918000886080938000B1
:10249000D0938D00C0938C00D9CF8091B00080681C
:1024A0008093B000C093B300D1CF8091B000806220
:1024B0008093B000C093B400C9CF80919000806831
:1024C00080939000D0939900C0939800BFCF8091E3
:1024D0009000806280939000D0939B00C0939A00FC
:1024E000B5CF80919000886080939000D0939D003C
:1024F000C0939C00ABCF8091A00080688093A00027
:102500008091A0008F7B8093A000D093A900C093FE
:10251000A8009CCF8091A00080628093A000D093FF
:10252000AB00C093AA0092CF8091A00088608093F6
:10253000A000D093AD00C093AC0088CF8091200163
:10254000806880932001D0932901C09328017ECF19
:1025500080912001806280932001D0932B01C09351
:102560002A0174CF80912001886080932001D0934C
:102570002D01C0932C016ACFC038D1050CF03ECF9D
:1025800033CFCF93DF93CDEFDCE01A8260E0888118
:102590000E94801170E060E08881DF91CF910C94FF
:1025A000EA11863308F0865320917B00982F9870AB
:1025B000277F922B90937B008770806480937C00B0
:1025C00080917A00806480937A0080917A0086FD01
:1025D000FCCF809178009091790008958230910528
:1025E00038F0880F991F880F991F05970197F1F709
:1025F00008953FB7F8948091E1069091E206A0918A
:10260000E306B091E40626B5A89B05C02F3F19F05C
:102610000196A11DB11D3FBFBA2FA92F982F882762
:10262000BC01CD01620F711D811D911D42E0660F3D
:10263000771F881F991F4A95D1F708958F929F920F
:10264000AF92BF92CF92DF92EF92FF926B017C012B
:102650000E94F9124B015C01C114D104E104F104A0
:10266000B9F00E94F912681979098A099B09683E34
:1026700073408105910580F321E0C21AD108E10879
:10268000F10888EE880E83E0981EA11CB11CE4CFEF
:10269000FF90EF90DF90CF90BF90AF909F908F9082
:1026A00008952FB7F8946091DD067091DE06809151
:1026B000DF069091E0062FBF0895CF93DF93CDEF13
:1026C000DCE081E08A8361E088810E9480116FEF05
:1026D00070E088810E94EA110E945113AB01BC0195
:1026E0008F819885092E000CAA0BBB0B840F951FB8
:1026F000A61FB71F8B839C83AD83BE83DF91CF91D1
:102700000895CF92DF92EF92FF92CF93DF93DC0197
:102710001796CC911797D0E06111DC2F18962C9169
:10272000189730E0220F331F295A304E50E040E016
:10273000F90185919491FC01F080BA0190E080E06C
:10274000EF2DEC23ED1310C04F5F5F4F1D96CD9022
:10275000DD90ED90FC9050976C157D058E059F05E2
:1027600038F36FEF7FEFCB01DF91CF91FF90EF90C8
:10277000DF90CF9008958F929F92AF92BF92CF92A9
:10278000DF92EF92FF920F931F93CF93DF93CDB71A
:10279000DEB7C054D1400FB6F894DEBF0FBECDBF38
:1027A0008C01F62E0E945113F11029C0F801C1844A
:1027B000D284E384F4849B01AC012C193D094E09B9
:1027C0005F0969017A0130EDC31637E0D306E104F1
:1027D000F104A8F48189C05CDE4F0FB6F894DEBF27
:1027E0000FBECDBFDF91CF911F910F91FF90EF9062
:1027F000DF90CF90BF90AF909F908F900895F80199
:102800006187728783879487148213821282118270
:10281000108262E085810E94AE1161E070E080E08C
:1028200090E00E941E1361E0F80185810E94AE11C4
:1028300060E0F80185810E948011F8018681855150
:102840008230E8F48BE291E10197F1F762E0F80160
:1028500085810E94AE11F801828990E00E94EE12FB
:10286000F89460E0C8010E9481136F3F7F4F8F4F43
:102870009F4F61F4F801118A789480E0ACCF64E155
:1028800070E080E090E00E941E13E0CF61E0C8019C
:102890000E9481136F3F7F4F8F4F9F4F59F39E01CF
:1028A0002F5F3F4F79015E013FEBA31A3EEFB30A62
:1028B000670160E0C8010E948113F60160837183A3
:1028C0008283938361E0C8010E948113F6016483CF
:1028D000758386839783F8E0CF0ED11CCA14DB047E
:1028E00041F7789430E020E0F70180809180A28069
:1028F000B3804481558166817781FFEF8F169F06F3
:10290000AF06BF0631F04F3F8FEF580768077807D3
:1029100019F4F801118AB1CFF90183E0F595E79533
:102920008A95E1F7E00FF11F8081880F84169506E4
:10293000A606B706F0F080832F5F3F4FF8E0EF0E5A
:10294000F11C2832310581F6F80144812081818112
:10295000280F3327331F8281280F311D8381820F77
:10296000932F911D99274817190699F681E0818BBD
:1029700032CF8160E0CFCF92DF92EF92FF92CF9380
:10298000DF93EC0161E00E94BB13882341F08E814C
:102990008B3028F08D3040F08551823030F160E08E
:1029A00070E080EC9FE71AC0698170E090E080E001
:1029B0000E94D3862DEC3CEC4CEC5DE30E94328708
:1029C0006B017C01688170E090E080E00E94D3861A
:1029D0009B01AC01C701B6010E94868DDF91CF91AA
:1029E000FF90EF90DF90CF900895688179817627EE
:1029F0006727762790E080E00E94D1862DEC3CECA2
:102A00004CEC5DE30E943287E9CF20912105260F2F
:102A10003327331F21323105ECF42091AF0CFC0138
:102A200090E080E0243069F082E00895A0912105D3
:102A30002191AC014F5F5A4FA40FB52FB11D2C93BC
:102A40000196861798F380912105680F6093210500
:102A500080E0089581E008951092AF0C81E08093AA
:102A60008E0C1092890C61E084E10E94801161E07B
:102A700085E10E948011E9EBF0E080818E7F808308
:102A800080818D7F808388E48093B80085E4809383
:102A9000BC000895CF93DF9391E0909300058823C5
:102AA000B9F0C091B800D091BA008091BC008A7B87
:102AB0008093BC0060E084E10E94801160E085E1C9
:102AC0000E9480110E942C15D093BA00C093B800C8
:102AD000DF91CF910895CF92DF92EF92FF920F9303
:102AE0001F93CF93DF93D82FC62F613208F098C081
:102AF0000E94F9126B017C018091AF0C81116BC0B7
:102B000081E08093AF0C80938E0C9FEF90938D0C9F
:102B100010928C0C9C0F90938B0C80938A0C80915C
:102B20008A0CDD0FD82BD0938A0C8091890C8130D0
:102B300009F078C01092890C0E94F9126B017C0197
:102B400080918A0C8093BB008091B10C9091B20C63
:102B5000A091B30CB091B40C892B8A2B8B2BA1F0D4
:102B60000E94F9120091B10C1091B20C2091B30C9B
:102B70003091B40C6C197D098E099F09061717074F
:102B80002807390708F448C08091BC0083FDD8CFDE
:102B900085EC8093BC000E94F9126B017C0180914E
:102BA000AF0C813009F440C080918C0C8C1710F46C
:102BB000C0918C0CE9E6FCE0AFE8BCE080E08C134F
:102BC00055C08C2FDF91CF911F910F91FF90EF9007
:102BD000DF90CF9008958091B10C9091B20CA091AC
:102BE000B30CB091B40C892B8A2B8B2B09F484CFB6
:102BF0000E94F9120091B10C1091B20C2091B30C0B
:102C00003091B40C6C197D098E099F0906171707BE
:102C10002807390708F070CF8091B00C0E944A1540
:102C2000C0E0CFCF85EEB5CF8091B10C9091B20CC2
:102C3000A091B30CB091B40C892B8A2B8B2B09F487
:102C4000AECF0E94F9120091B10C1091B20C2091FC
:102C5000B30C3091B40C6C197D098E099F090617CD
:102C600017072807390708F09ACFD6CF91919D937F
:102C70008F5FA5CF0895E091F00C8091EF0CE817DD
:102C800030F4F0E0E157F34F808190E008958FEF4A
:102C90009FEF08959091F00C8091EF0C2FEF3FEF94
:102CA000981748F4E92FF0E0E157F34F208130E026
:102CB0009F5F9093F00CC9010895CF92DF92EF923D
:102CC000FF920F931F93CF93DF937C01CB018A0177
:102CD0002091FF04222389F0EB016B01C40ED51E65
:102CE000CC15DD0569F06991D701ED91FC9101905A
:102CF000F081E02DC7011995F3CF642F0E940515CF
:102D0000C801DF91CF911F910F91FF90EF90DF905D
:102D1000CF900895CF93DF931F92CDB7DEB769832D
:102D20002091FF042223F9F02091ED0C203258F07D
:102D300021E030E0FC013383228390E080E00F90BB
:102D4000DF91CF9108958091EE0CE82FF0E0E152F1
:102D5000FB4F998190838F5F8093EE0C8093ED0CF5
:102D600081E090E0ECCF61E0CE0101960E94051574
:102D7000F7CF90E080E0089580912A0790912B078B
:102D80008635910554F481E02091130730911407A2
:102D9000263031051CF480E0089581E0089580918B
:102DA0003E0290913F020F971816190614F490E016
:102DB00080E090932B0780932A07109214071092BB
:102DC000130710922C071298109215071198089566
:102DD0008F929F92AF92BF92CF92DF92EF92FF922B
:102DE0000F931F93CF93DF93B2E3A0E06A2F70E0BD
:102DF000AB014B0F511D55954795411119C0E7E7A0
:102E0000FEE165917491072E000C880B990B0E94CE
:102E1000D386DF91CF911F910F91FF90EF90DF90BC
:102E2000CF90BF90AF909F908F900895B42FE0CF38
:102E3000A41711F0B41303C0EBE3FFE1E2CF9A0152
:102E400021503109220F331F220F331FF901EB5894
:102E5000F14EE590F490F901E758F14EC591D49107
:102E60008E159F051CF3A42FC817D9070CF4BECFED
:102E7000F901E958F14E05911491F901E558F14E27
:102E8000C590D490BC016E197F09072E000C880BE9
:102E9000990B0E94D3864B015C01B601601B710B3C
:102EA000072E000C880B990B0E94D3869B01AC0166
:102EB000C501B4010E9432874B015C01BE016E194D
:102EC0007F09072E000C880B990B0E94D3869B016B
:102ED000AC01C501B4010E94808E6B017C01B80178
:102EE000110F880B990B0E94D3869B01AC01C7017F
:102EF000B6010E94868D8DCFBC0120918404309153
:102F0000850440918404509185042417350731F4D9
:102F100081E02617370709F080E008959A01F1CF84
:102F20000000000000008091460580FF2EC08091C7
:102F300002018870809300018FEF80933A048091A2
:102F40004605869580FF29C080910201817080939B
:102F500000018FEF80933B0480914605869586950E
:102F600080FF23C02E9A8FEF80933C04809146050A
:102F700086958695869580FF1BC0289A8FEF809353
:102F80003D0400000000000008958091020180953A
:102F900088708093000181E0D0CF809102018095FC
:102FA00081708093000181E0D5CF2E9881E0DCCF45
:102FB000289881E0E4CFAF92BF92CF92DF92EF9258
:102FC000FF920F931F93CF93DF93CBE1DCE003E9F4
:102FD00017E08BE2A82E8CE0B82EC12CD12C760104
:102FE000C39469917991899199910E94D186288998
:102FF00039894A895B890E9432870E94F98EF801DB
:1030000061937193819391938F01C616D706E80659
:10301000F90610F46B017C01AC16BD0611F76FEFD9
:103020007FEFCB01A70196010E94FA8C2093A307A2
:103030003093A4074093A5075093A607DF91CF9143
:103040001F910F91FF90EF90DF90CF90BF90AF90C6
:103050000895CF92DF92EF92FF928091FD06882330
:1030600009F457C0C090F906D090FA06E090FB062C
:10307000F090FC0620E030E0A901C701B6010E94F3
:10308000CC86882309F445C020E030E040E05FE3CF
:10309000C701B6010E9432879B01AC010E943287B2
:1030A0002BED3FE049E450E40E9432879B01AC01E4
:1030B00060E070E080E89FE30E94808E6B017C01FD
:1030C000C092E906D092EA06E092EB06F092EC0696
:1030D0006091170270911802072E000C880B990B53
:1030E0000E94D3862AE037ED43E25CE30E943287F8
:1030F000A70196010E94328760935A0270935B0287
:1031000080935C0290935D02FF90EF90DF90CF90F0
:103110000895C12CD12C80E8E82E8FE3F82ED0CF73
:103120008091B80C9091B90C891B8F7019F490E0C4
:1031300080E008959091B50C992351F0833030F4DC
:103140008FEF890F19F08093B50CF1CF1092B50C69
:103150008091B90C26E4829FC00111248854984FB5
:10316000FC01208120FDE3CF2091B90C2F5F2F704F
:103170002093B60C3091B90C2091B70C321304C0D7
:103180002091B60C2093B70C089590916F0081E0C8
:1031900091FD02C080E0089590916F009D7F909313
:1031A0006F000895EFE6F0E08081826080830895EB
:1031B000CF93C82F0E94C51894E0C99F9001112495
:1031C000F901E957FB4F2D563B4FD9014D915D91C8
:1031D0006D917C91408351836283738391E09093DE
:1031E0008604882319F0CF910C94D218CF910895BA
:1031F000CF92DF92EF92FF92CF93DF93C82F0E947E
:10320000C51894E0C99FE0011124FE01ED56FB4F63
:10321000C080D180E280F38081110E94D218C8550D
:10322000D84FC701B6010E94D386288139814A81CF
:103230005B810E943287DF91CF91FF90EF90DF900A
:10324000CF900895CF92DF92EF92FF92CF93DF93CA
:10325000C82F0E94C51894E0C99FE0011124FE0107
:10326000E957FB4FC080D180E280F38081110E943A
:10327000D218C855D84FC701B6010E94D3862881FD
:1032800039814A815B810E943287DF91CF91FF9023
:10329000EF90DF90CF900895CF93DF9324E0829F4B
:1032A000C0011124EC01CD58D84FFC01E351F94F76
:1032B0008B5B984FDC012D913D914D915C9160812C
:1032C0007181828193810E94868D688379838A834C
:1032D0009B83DF91CF910895CF92DF92EF92FF927F
:1032E0001F93CF93DF9320911902222309F48DC0FD
:1032F000EC011091700710FF2CC0C0901A02D09002
:103300001B02E0901C02F0901D02288139814A8145
:103310005B81C701B6010E94E68F181624F4C882AB
:10332000D982EA82FB82C0902602D0902702E090E8
:103330002802F0902902288139814A815B81C701E6
:10334000B6010E94CC8687FF04C0C882D982EA8277
:10335000FB8211FF2CC0C0901E02D0901F02E09093
:103360002002F09021022C813D814E815F81C701B6
:10337000B6010E94E68F181624F4CC82DD82EE821C
:10338000FF82C0902A02D0902B02E0902C02F09095
:103390002D022C813D814E815F81C701B6010E94C3
:1033A000CC8687FF04C0CC82DD82EE82FF8212FFD2
:1033B0002CC0C0902202D0902302E0902402F09012
:1033C0002502288539854A855B85C701B6010E949B
:1033D000E68F181624F4C886D986EA86FB86C09044
:1033E0002E02D0902F02E0903002F090310228851A
:1033F00039854A855B85C701B6010E94CC8687FF67
:1034000004C0C886D986EA86FB86DF91CF911F91DA
:10341000FF90EF90DF90CF900895CF92DF92EF92E0
:10342000FF92CF93DF9381E00E94F8186B017C013B
:1034300080E00E94F818CEE2D4E0688379838A8322
:103440009B83CC82DD82EE82FF8282E00E94F818AC
:10345000688779878A879B87DF91CF91FF90EF906C
:10346000DF90CF900895CF92DF92EF92FF929091EC
:10347000090180912D0492FD64C0806180932D0428
:103480009091090180912D0495FD5DC0826080932B
:103490002D049091090180912D0491FF56C0806404
:1034A00080932D04C0907704C0FE10C08091460523
:1034B00080FD0CC080912D0484FF08C08091DB0644
:1034C00080618093DB0680E00E94D818D12CF12C1B
:1034D000E12CD701C601B695A7959795879580FFF2
:1034E00011C080914605869580FF0CC080912D0407
:1034F00081FF08C08091DB0682608093DB0681E05B
:103500000E94D81882E0F694E794D794C7948A95DD
:10351000D1F7C0FE1CC0809146058695869580FD3A
:1035200016C080912D0486FF12C08091DB06806456
:103530008093DB0682E0FF90EF90DF90CF900C94B9
:10354000D8188F7E9BCF8D7FA2CF8F7BA9CFFF9086
:10355000EF90DF90CF9008950F931F9380913D07D8
:10356000813019F50E9451130091290410912A0409
:1035700020912B0430912C04601B710B820B930B58
:1035800028EE33E040E050E00E94FA8C6091250480
:10359000709126048091270490912804620F731F74
:1035A000841F951F1F910F910895609139077091A5
:1035B0003A0780913B0790913C07D6CF10923D0788
:1035C0001092290410922A0410922B0410922C04B9
:1035D0001092390710923A0710923B0710923C075D
:1035E00010922504109226041092270410922804A9
:1035F000089580913D078130F1F08230C9F40E9436
:10360000AC1A60932504709326048093270490934A
:10361000280481E080933D070E94511360932904A0
:1036200070932A0480932B0490932C0481E00895D6
:103630000E94DE1AEECF80E0089580913D07815010
:10364000823070F410923D070E9451136093390745
:1036500070933A0780933B0790933C0781E008956D
:1036600080E00895282F90916B07833021F495FD19
:103670000FC094FD0FC0892F90E0B0E0A0E004C01F
:10368000B695A795979587952A95D2F78170089555
:1036900081E0089580E00895082E000C990BFC014C
:1036A000E651F04EE491EE2391F0F0E0EE0FFF1FB3
:1036B000E95AF04EA591B4912C91805D9F4DFC018B
:1036C0008491282381E090E021F480E0089580E057
:1036D00090E00895082E000C990BFC01E651F04E85
:1036E000E491F0E0EE0FFF1FE35CF04EA591B49182
:1036F0002C91805D9F4DFC018491822391E009F41F
:1037000090E0892F08952FEB280F2A3108F042C04E
:10371000E22FF0E080913E0790913F07A091400793
:10372000B091410704C0B695A795979587952A95BE
:10373000D2F780FD02C081700895E757FC4FE08109
:10374000EE2329F18091710790917207E80FF92F0C
:10375000F11D808190ED980F9A3030F08E3251F447
:10376000818180538A3098F4F0938703E093860335
:1037700081E008958D3211F08B3249F4818190ED12
:10378000980F9A3088F38E3211F48281EACFF0E0FC
:10379000E0E0EACF80E008950E94831B882341F097
:1037A00081E02091860330918703232B09F480E088
:1037B00008959091E80680911502992321F08111D6
:1037C00002C0A098089520911602209385039923A2
:1037D00011F08823B1F38823A1F3A09A0895809172
:1037E000020180958071809300010895809102010B
:1037F0008095827080930001809159078E7F80931D
:103800005907769A809159078D7F809359072C9A92
:10381000809159078B7F809359070C94EF1BC82F19
:1038200089EE93E030E6019729F0232F2A950000D6
:10383000E9F7F9CFF89489EE93E038EE019729F093
:10384000232F2A950000E9F7F9CF0E94CF16CC2349
:1038500021F00E94F61BA895FECF0E94EF1BFBCF24
:103860009091C00095FFFCCF8093C6000895CF9340
:10387000C82FC15020F080E20E94301CFACFCF91B7
:103880000895CF93DF93EC01FE0184912196882364
:1038900019F00E94301CF8CFDF91CF910895CF939B
:1038A000C82FCB010E94411C82E198E00E94411C7C
:1038B00084EC9CE0CC2311F089EC9CE00E94411C3C
:1038C0008AE0CF910C94301C1F93CF93DF9385EE49
:1038D0009CE00E94411CC9E0D1E0888111E082FB9C
:1038E000882780F96FED7CE081270E944F1C88813A
:1038F00085FB882780F969ED7CE081270E944F1CB9
:10390000888163ED7CE086958170DF91CF911F9176
:103910000C944F1CCF93DF93C82F88E598E00E944A
:10392000411C0C2E000CDD0BFE01E651F04E849183
:10393000805C0E94301CFE01E05DFF4DE49180E35D
:10394000E13021F0E6958F5F8933D1F7DF91CF9198
:103950000C94301C0F931F93CF93DF938B010E9425
:10396000411CE8018991882319F00E94301CFACF8C
:10397000DF91CF911F910F9108958DE897E00C94FE
:10398000411C87E897E00C94411C0E94C11C609187
:103990007107709172078FE993E10E94AA1C8CE96C
:1039A00093E10C94411C0F931F93CF93811113C08B
:1039B000C42F8B010E94C11C87E29BE00E94411C26
:1039C000C8010E94411CCC2331F08AE0CF911F91A5
:1039D0000F910C94301CCF911F910F9108958091FD
:1039E000A3039091A4032FEF3FEF981751F0E92F15
:1039F000F0E0ED55FC4F228130E09F5F9F77909380
:103A0000A403C9010895CF93DF9362E080915E0D16
:103A10000E946B151092F00C8093EF0C64E070E044
:103A200080E090E00E941E1381EF9CE00E944A1605
:103A3000D82F80E0C82F81EF9CE00E944A16BE017B
:103A4000682B792B7F73072E000C880B990B0E9433
:103A5000D386DF91CF9108954F925F926F927F92BC
:103A6000AF92BF92CF92DF92EF92FF920F931F938C
:103A7000CF93DF93C5E0D0E0C12CD12C76010E941A
:103A8000031D9B01AC01C701B6010E94868D6B012D
:103A90007C012197A1F720E030E040EA50E40E9449
:103AA000808E2B013C010091560D1091570D58014D
:103AB000E801CC0FDD1FCC0FDD1FC25DD24FC12C42
:103AC000D12C760181E0A81AB10824971A141B049E
:103AD0008CF4FE0134972081318142815381288307
:103AE00039834A835B83C701B6010E94868D6B01CF
:103AF0007C01E8CFB801110F880B990B0E94D38687
:103B00009B01AC01C301B2010E94808E9B01AC01FC
:103B100020932E0D30932F0D4093300D5093310D87
:103B200040905A0D50905B0D60905C0D70905D0D53
:103B3000C701B6010E94868DA30192010E94858D66
:103B400026EC3DEE41E352E40E9432876B017C019A
:103B5000A301920160E070E08AE796E40E94858DFF
:103B60009B01AC01C701B6010E94808EDF91CF910D
:103B70001F910F91FF90EF90DF90CF90BF90AF908B
:103B80007F906F905F904F900895CF93DF93C9E03F
:103B9000D0E00E942C1D2197E1F70E942C1D20E00F
:103BA00030E04DE952E40E94808E2AEB39E041E199
:103BB00053E40E943287DF91CF9108958F929F92B4
:103BC000AF92BF92CF92DF92EF92FF920F931F932B
:103BD000CF93DF93B0E4A0E06A2F70E0AB014B0F0E
:103BE000511D55954795411119C0ECECF3E16591D4
:103BF0007491072E000C880B990B0E94D386DF91DD
:103C0000CF911F910F91FF90EF90DF90CF90BF90D9
:103C1000AF909F908F900895B42FE0CF4A1711F086
:103C2000B41303C0E8ECF4E1E2CF9A01215031096A
:103C3000220F331F220F331FF901E653FC4EE5908C
:103C4000F490F901E253FC4EC591D4918E159F0575
:103C50001CF3A42FC817D9070CF4BECFF901E45305
:103C6000FC4E05911491F901E053FC4EC590D4909F
:103C7000BC016E197F09072E000C880B990B0E945E
:103C8000D3864B015C01B601601B710B072E000C43
:103C9000880B990B0E94D3869B01AC01C501B4012E
:103CA0000E9432874B015C01BE016E197F09072E0D
:103CB000000C880B990B0E94D3869B01AC01C501B7
:103CC000B4010E94808E6B017C01B801110F880B3A
:103CD000990B0E94D3869B01AC01C701B6010E94DB
:103CE000868D8DCFCF93DF93C2E2D7E08A819B810F
:103CF0000E94DE1D6C837D838E839F83CBE0D7E0A3
:103D00008A819B810E94E8166C837D838E839F83CA
:103D1000A8951092CE04DF91CF9108952F923F92F3
:103D20004F925F926F927F928F929F92AF92BF92CB
:103D3000CF92DF92EF92FF920F931F93CF93DF9377
:103D400000D000D000D01F921F92CDB7DEB7809177
:103D5000CD04811171C08091CE04811119C02B96C0
:103D60000FB6F894DEBF0FBECDBFDF91CF911F918C
:103D70000F91FF90EF90DF90CF90BF90AF909F900A
:103D80008F907F906F905F904F903F902F9008950D
:103D90000E94721E0E945113C0902607D0902707E0
:103DA000E0902807F090290760913C0270913D0255
:103DB000072E000C880B990B0E94D3869B01AC0147
:103DC000C701B6010E94E68F181694F460913E0276
:103DD00070913F02072E000C880B990B0E94D3862E
:103DE0009B01AC01C701B6010E94CC8687FD2FC0A4
:103DF00060E060932C0740900F0750901007609090
:103E000011077090120720E030E040EA50E4C3014F
:103E1000B2010E94E68F87FD0BC020E030E042E057
:103E200053E4C301B2010E94CC8618160CF00EC1F7
:103E300060E06093150793CF0E94CF160E94BD1CCF
:103E40008DE49DE00E94411C81E00E940F1C609166
:103E50002A0770912B076115710509F401C2072E1D
:103E6000000C880B990B0E94D386A70196010E9433
:103E7000858D2B013C0120E030E040E251EC0E94B6
:103E8000CC8687FDEDC120E030E040E251E4C30183
:103E9000B2010E94E68F18160CF4FAC18091CC048E
:103EA000811100C28090C4049090C504A090C60403
:103EB000B090C7048091C8049091C904A091CA042D
:103EC000B091CB048D839E83AF83B887A701960101
:103ED0006091B8047091B9048091BA049091BB04C8
:103EE0000E94858D20913507309136074091370724
:103EF000509138070E943287A50194010E94858D58
:103F000020ED3CEC4CE45DE30E943287A501940176
:103F10000E94868D4B015C018092C4049092C5047E
:103F2000A092C604B092C7048091310790913207E5
:103F3000A0913307B091340789839A83AB83BC8304
:103F40002D813E814F815885C301B2010E94868D2B
:103F5000162F7B878A87092F20E030E0A9010E9475
:103F6000CC8687FDA9C129813A814B815C8160E0C3
:103F700070E08FE793E40E94808E6D8379871C0147
:103F8000212F3B854A85502F0E94CC8687FF05C094
:103F90001D8199859B872A86032D812F9B85AA8564
:103FA000B02F8093C8049093C904A093CA04B0931F
:103FB000CB0420912D0730912E0740912F0750916F
:103FC0003007C301B2010E9432872B013C014092AD
:103FD000BC045092BD046092BE047092BF04212FB5
:103FE0003B854A85502F69817A818B819C810E9413
:103FF00032879B01AC012093C0043093C1044093ED
:10400000C2045093C304C301B2010E94868DA5016E
:1040100094010E94868D20E030E0A9010E94868DE7
:104020004B015C0120E030E0A9010E94CC8687FDB5
:104030001AC120E030E04FE753E4C501B4010E940B
:10404000E68F18160CF019C16FE70EC160911307C7
:10405000709114076115710509F416C1072E000C43
:10406000880B990B0E94D386A30192010E94858D33
:104070004B015C0120E030E040E251EC0E94CC8634
:1040800087FD02C120E030E040E251E4C501B40107
:104090000E94E68F18160CF400C180911A079091C7
:1040A0001B07A0911C07B0911D0789839A83AB83DE
:1040B000BC8380910402811104C12091B404309129
:1040C000B5044091B6045091B704C090B004D090AC
:1040D000B104E090B204F090B304C501B4010E94B1
:1040E000868D162F7B878A87092F20E030E0A90173
:1040F0000E94CC8687FDEDC029813A814B815C818D
:1041000060E070E08FE793E40E94808E362E272EC9
:104110008D839987212F3B854A85502F0E94CC861D
:1041200087FF05C0132D2B869D819A870985812FD6
:104130009B85AA85B02F8093B4049093B504A09377
:10414000B604B093B7042091160730911707409139
:10415000180750911907C501B4010E9432874B011D
:104160005C018092A8049092A904A092AA04B09243
:10417000AB04212F3B854A85502F69817A818B8141
:104180009C810E94328769837A838B839C836093AE
:10419000AC047093AD048093AE049093AF04A3017C
:1041A00092016091A4047091A5048091A60490915D
:1041B000A7040E94858D20911E0730911F07409112
:1041C0002007509121070E943287A70196010E9483
:1041D000858D20ED3CEC4CE45DE30E943287A70125
:1041E00096010E94868D6B017C01C092B004D09232
:1041F000B104E092B204F092B3044092A40450924D
:10420000A5046092A6047092A70429813A814B818B
:104210005C81C501B4010E94868DA70196010E94B0
:10422000868D20E030E0A9010E94868D6B017C0123
:1042300020E030E0A9010E94CC8687FDF9CD20E086
:1042400030E04FE753E4C701B6010E94E68F18162D
:104250003CF1C701B6010E94F28E75956795E9CDD4
:1042600081E08093CC0460E0C092B804D092B9049D
:10427000E092BA04F092BB04BCCDC501B4010E9427
:10428000F28E75956795F0CF81E080930402D0CDD2
:1042900081E08093CC046FE7E7CF81E08093040254
:1042A0006FE7C7CD1092CC041D821E821F82188634
:1042B000812C912C54010ACE10E01B861A8600E056
:1042C0006CCE10920402C12CD12C7601A70196016C
:1042D00004CF10E01B861A8600E029CFCF92DF9230
:1042E000EF92FF926B017C0183E3C816D104E104D5
:1042F000F10470F082E3C81AD108E108F10862E322
:1043000070E080E090E00E941E130E948E1EECCFB1
:10431000C701B6010E941E13FF90EF90DF90CF906F
:104320000C948E1E80915107882331F062E070E07A
:1043300080E090E00C946E210895CF92DF92EF928E
:10434000FF920F931F93CF93DF93CDB7DEB7A09764
:104350000FB6F894DEBF0FBECDBF611571058105A4
:10436000910579F100E0C42ED12CF12CE12CA701AC
:1043700096010E94FA8C11E0100FE1E0F0E0EC0FE2
:10438000FD1FE00FF11D07FDFA956083B901CA0119
:10439000012F611571058105910549F7115010F143
:1043A000E1E0F0E0EC0FFD1FE10FF11D17FDFA95C4
:1043B000908187E39A3008F480E3890F0E94301CD3
:1043C000EDCF80E3A0960FB6F894DEBF0FBECDBF51
:1043D000DF91CF911F910F91FF90EF90DF90CF90E1
:1043E0000C94301CA0960FB6F894DEBF0FBECDBF64
:1043F000DF91CF911F910F91FF90EF90DF90CF90C1
:104400000895CF92DF92EF92FF926B017C01F7FE4D
:104410000BC08DE20E94301CF094E094D094C094C4
:10442000C11CD11CE11CF11C4AE0C701B601FF9080
:10443000EF90DF90CF900C949D210F931F93CF931B
:10444000C82F8B0180916A07813099F40E94BD1CAE
:10445000C8010E94411C8FE29DE00E94411CC111D5
:104460001FC060E070E0CB010E9401228AE00E9440
:10447000301C0E94CF168091A304811116C081E0E8
:104480008093A30480E880936A070E94CF160E945D
:10449000BD1C8DE49DE00E94411C80E00E940F1C29
:1044A0008BE29DE00E94411CE1CFCF911F910F91C3
:1044B0000895CF92DF92EF92FF92CF93DF93EC01BA
:1044C000C880D980EA80FB8081E29DE00E94411C87
:1044D000C701B6010E940122CC80DD80EE80FF8002
:1044E00086EB93E10E94411CC701B6010E940122A4
:1044F000C884D984EA84FB8482EB93E10E94411C46
:10450000C701B6010E9401228AE0DF91CF91FF909E
:10451000EF90DF90CF900C94301CCF93DF93EB01A2
:104520000E94411CBE01DD0F880B990BDF91CF91DA
:104530000C9401228F929F92AF92BF92CF92DF9202
:10454000EF92FF92CF936B017C01B42E20E030E01C
:10455000A9010E94CC8687FF07C08DE20E94301C13
:10456000F7FAF094F7F8F094C0E060E070E080E0D3
:104570009FE3CB1541F02DEC3CEC4CEC5DE30E944D
:104580003287CF5FF6CF9B01AC01C701B6010E9415
:10459000868D6B017C010E94F98E4B015C014AE023
:1045A0000E949D21CC2391F1C501B4010E94D186C6
:1045B0009B01AC01C701B6010E94858D6B017C0196
:1045C0008EE20E94301CC15008F120E030E040E251
:1045D00051E4C701B6010E9432874B015C010E9481
:1045E000F28E6B01770FEE08FF08C701B6010E943B
:1045F0000122C701B6010E94D3869B01AC01C5010F
:10460000B4010E94858D6B017C01DDCFCF91FF90BD
:10461000EF90DF90CF90BF90AF909F908F900895D4
:10462000CF92DF92EF92FF926A017B010E94411CC0
:1046300042E0C701B601FF90EF90DF90CF900C945D
:104640009A228823A9F10E94C11C40912F0C5091FD
:10465000300C6091310C7091320C83EC93E10E942C
:1046600010234091330C5091340C6091350C7091B3
:10467000360C80EC93E10E9410234091370C50914E
:10468000380C6091390C70913A0C8DEB93E10E94DB
:10469000102340913B0C50913C0C60913D0C70916B
:1046A0003E0C8AEB93E10E9410238AE00C94301CAC
:1046B00080E20E94301CC9CF4F925F926F927F922E
:1046C0008F929F92AF92BF92CF92DF92EF92FF9222
:1046D0000F931F93CF93DF93CAE4D2E04C845D84A1
:1046E0006E847F8403E717E0F801248135814681D9
:1046F00057816C817D818E819F810E94868D4B01C7
:104700005C01F8012085318542855385688579856E
:104710008A859B850E94868D6B017C01F801208132
:10472000318142815381688179818A819B810E9494
:10473000868DAB01BC0188E29DE00E941023B5018B
:10474000A40186EB93E10E941023B701A60182EB3E
:1047500093E10E941023B301A20182E599E0DF9169
:10476000CF911F910F91FF90EF90DF90CF90BF906E
:10477000AF909F908F907F906F905F904F900C9430
:104780001023CF93DF93CDB7DEB72C970FB6F894F5
:10479000DEBF0FBECDBF0E945C230E94C5189CE007
:1047A000E3E9F4E0DE01119601900D929A95E1F7AC
:1047B00081110E94D218CE0101960E9459222C9696
:1047C0000FB6F894DEBF0FBECDBFDF91CF91089535
:1047D000EF92FF920F931F93CF937C018B01C2E462
:1047E0004F3F09F0C4E580E20E94301C8C2F0E94EC
:1047F000301C8AE30E94301CF70160817181828144
:10480000938142E00E949A22F801408151816281A5
:10481000738189EC9DE00E94102362E070E080E0EB
:1048200090E0CF911F910F91FF90EF900C941E1389
:10483000EF92FF921F93CF93DF9300D000D01F928F
:104840001F92CDB7DEB7182F82E2E82E87E0F82E50
:10485000F70160857185072E000C880B990B0E946B
:10486000D3866D837E838F83988720E030E0A90113
:10487000F70164817581868197810E94868D6983A5
:104880007A838B839C834BEFBE016B5F7F4FCE019E
:1048900001960E94E8239BE0E92E97E0F92EF701AC
:1048A00060857185072E000C880B990B0E94D386BA
:1048B0006D837E838F839887F70184819581A6819C
:1048C000B78189839A83AB83BC834FEFBE016B5F53
:1048D0007F4FCE0101960E94E82387E11802F00184
:1048E0001124EE5DF84F628570E081ED9DE00E943D
:1048F0008D22F701628570E08CEC9DE00E948D2294
:1049000028960FB6F894DEBF0FBECDBFDF91CF91D2
:104910001F91FF90EF9008951F93CF93DF93C82FBF
:10492000D1E0D827811102C00E94C11C8DEA9CE011
:104930000E94411C87EA9CE00E94411C8AE00E9480
:10494000301C8AE00E94301C1091FD06C11112C07B
:104950000E94C11C87E29BE00E94411C84E99CE00C
:104960000E94411C112309F4D3C18AE00E94301C2B
:104970000E94C11C4091F9065091FA066091FB0615
:104980007091FC0680E89CE00E9410238AE00E945F
:10499000301C111108C0C11102C00E94C11C85E762
:1049A0009CE00E94411C41E065E67CE08C2F0E9467
:1049B000D31C8D2F0E94212341E068E47CE08C2FE2
:1049C0000E94D31CC11102C00E94C11C40913F0C27
:1049D0005091400C6091410C7091420C8FE39CE02F
:1049E0000E9410234091430C5091440C6091450C5F
:1049F0007091460C80EC93E10E9410234091470C8B
:104A00005091480C6091490C70914A0C8DEB93E1E8
:104A10000E94102340914B0C50914C0C60914D0C16
:104A200070914E0C8AEB93E10E9410238AE00E9461
:104A3000301C41E06EE17CE08C2F0E94D31CC11140
:104A400002C00E94C11C60911B0C70911C0C8091D3
:104A50001D0C90911E0C0E94D186AB01BC0185E11A
:104A60009CE00E94102360911F0C7091200C80919B
:104A7000210C9091220C0E94D186AB01BC0180ECEC
:104A800093E10E9410236091230C7091240C80917B
:104A9000250C9091260C0E94D186AB01BC018DEBB8
:104AA00093E10E9410236091270C7091280C809153
:104AB000290C90912A0C0E94D186AB01BC018AEB93
:104AC00093E10E9410238AE00E94301C41E06CECCC
:104AD0007BE08C2F0E94D31CC11102C00E94C11C1C
:104AE00040914F0C5091500C6091510C7091520CB0
:104AF00083EC9BE00E9410234091530C5091540C86
:104B00006091550C7091560C8BE590E10E9410233A
:104B10004091570C5091580C6091590C70915A0C5F
:104B200088E590E10E9410238AE00E94301C41E059
:104B30006FE67BE08C2F0E94D31CC11102C00E9443
:104B4000C11C60912B0C70912C0C80912D0C9091BC
:104B50002E0C0E94D186AB01BC0186E69BE00E9430
:104B6000102340915B0C50915C0C60915D0C709136
:104B70005E0C86E692E10E94102340915F0C5091FA
:104B8000600C6091610C7091620C88E590E10E946C
:104B9000102340917F0750918007609181077091A9
:104BA000820783E69BE00E9410238AE00E94301C6B
:104BB00041E066E57BE08C2F0E94D31CC11102C04E
:104BC0000E94C11C4091ED065091EE066091EF06E7
:104BD0007091F0068DE49BE00E9410234091F10655
:104BE0005091F2066091F3067091F40680EC93E127
:104BF0000E9410234091F5065091F6066091F70649
:104C00007091F8068DEB93E10E9410238AE00E94D8
:104C1000301C41E06FE37BE08C2F0E94D31CC1115C
:104C200002C00E94C11C40912D0750912E07609137
:104C30002F077091300786E39BE00E9410232CEA37
:104C400035EC47E25EE36091310770913207809165
:104C50003307909134070E94808EAB01BC018AE239
:104C60009BE00E9410232CEA35EC47E25EE3609162
:104C700035077091360780913707909138070E9469
:104C80003287AB01BC0186E89CE00E9410238AE0D9
:104C90000E94301CC11102C00E94C11C4091160725
:104CA0005091170760911807709119078DE29BE0EA
:104CB0000E9410232CEA35EC47E25EE360911A076C
:104CC00070911B0780911C0790911D070E94808E98
:104CD000AB01BC018AE29BE00E9410232CEA35EC78
:104CE00047E25EE360911E0770911F0780912007E5
:104CF000909121070E943287AB01BC0186E89CE0BD
:104D00000E9410238AE0DF91CF911F910C94301CF8
:104D100089E89CE00E94411C2BCE8DE00E94301C53
:104D20008AE00C94301C8091A3038093A40381EA51
:104D300099E00E94411C6091650C7091660C809115
:104D4000670C9091680C6F5F7F4F8F4F9F4F0E9451
:104D500001220E948D26E091E506F0E0E253F34F38
:104D60008081882339F085ED9EE00E94411C8AE015
:104D70000C94301C0895CF93DF93EC010E94BD1C6E
:104D8000CE010E94411C6091650C7091660C80916F
:104D9000670C9091680C0E9401220E948D260E944F
:104DA000EF1C0196E1F70E9493261092640C10927A
:104DB000630CDF91CF9108950F931F93CF938C01D4
:104DC000C62F86E599E00E94411CC8010E94411C43
:104DD0008AE30E94301C6C2F70E090E080E00E941B
:104DE0000122CF911F910F910C948D26CF93DF93C9
:104DF000EC018991882319F00E94301CFACFDF91D1
:104E0000CF910C948D26CF93FC01C08DC11106C0AB
:104E1000C18DC11108C08C2FCF91089586E892E012
:104E20000E94F626F8CF6281738181E799E00E94A3
:104E30008D228AE00E94301CEECF2F923F924F923B
:104E40005F926F927F928F929F92AF92BF92CF921A
:104E5000DF92EF92FF920F931F93CF93DF93CDB723
:104E6000DEB764970FB6F894DEBF0FBECDBFF82E45
:104E7000062F642E26E0829F60011124F601E85F70
:104E8000FA4E45905490C6018A5F9A4E5C01FC012F
:104E900025903490F201808190E0B0E0A0E0B695DA
:104EA000A79597958795F10110811370282F24708D
:104EB000122BF4E04F1302C08870182B88E298E0A0
:104EC0000E94411C30E3732E7F0C872D0E94301C02
:104ED000802F0E94301C83E00E94371C802E002E01
:104EE000000C9908F401E154F10923E0F29EE00D71
:104EF000F11D1124EE0FFF1FEE51FB4ECE01019666
:104F00007C0193E069121BC0A591B4918C911F9212
:104F10008F9384E997E09F938F93FF92EF920E9483
:104F20009C860F900F900F900F900F900F90F701AD
:104F300081917F01882309F10E94301CF8CFA5914F
:104F4000B49111968C9111978F938C918F9384E9E2
:104F500097E09F938F93FF92EF920E949C860F9011
:104F60000F900F900F900F900F90F70181917F019C
:104F7000882319F00E94301CF8CF612F70E08EE179
:104F800098E00E948D22F501E590F4908EE997E07B
:104F90000E94411C872D0E94301C802F0E94301CD3
:104FA000F701608170E083E090E088199909880F2B
:104FB000991F02C0759567958A95E2F76370772708
:104FC00082E198E00E948D22F20180818770882E14
:104FD000912CB12CA12C85E198E00E94411C4AE063
:104FE000C501B4010E949D2188E098E00E94411C07
:104FF000872D0E94301CF101608170E081E198E012
:105000000E948D2288E098E00E94411C872D0E941A
:10501000301CF201608170E084E098E00E948D22F3
:10502000F601E65FFA4EE590F4908AEF97E00E9471
:10503000411C872D0E94301CF701608170E082E1E5
:1050400098E00E948D220054F3E06F1239C0197F5E
:1050500021F486EA97E00E94411CF701808190E0EC
:10506000B0E0A0E004C0B695A795979587950A95FE
:10507000D2F780FF04C08FEB97E00E94411CF7013C
:10508000808180FF04C08CED97E00E94411C6496F3
:105090000FB6F894DEBF0FBECDBFDF91CF911F9149
:1050A0000F91FF90EF90DF90CF90BF90AF909F90C7
:1050B0008F907F906F905F904F903F902F900895CA
:1050C000812F8B7F31F21C50123038F6C2CFCF9334
:1050D000DF93C82FD0E0FE01EF58F04EE491E1508D
:1050E000E231F0F4F0E08827E758F74D8F4F0C9449
:1050F0007D8D8B28BB28BE28C228C5289028C828AB
:10510000CC28CF28D328D628D928DD28E0289028F5
:10511000E328E728EA2843E061E480E00E941D27B5
:1051200080E499E00E94411CFE01E651F04EE491BA
:10513000E23009F052C0FE01E05DFF4DE491E0383D
:1051400009F04BC084E598E00E94411C82E10E9476
:10515000371C8CE498E00E94411C82E398E00E9496
:10516000411C8EE00E94371C44E063E481E0DF9143
:10517000CF910C941D2743E062E4CFCF44E061E47B
:1051800081E0CCCF44E062E4FBCF44E063E4F8CFBD
:1051900043E061E482E0C2CF43E062E4FBCF44E05D
:1051A00061E483E0BBCF44E062E4FBCF44E063E42E
:1051B000F8CF44E061E484E0B1CF44E062E4FBCFA7
:1051C00044E063E4F8CF44E061E485E0A7CF44E045
:1051D00062E4FBCF44E063E4F8CFDF91CF91089520
:1051E0000F931F93CF93DF93CDB7DEB764970FB6BE
:1051F000F894DEBF0FBECDBFE82FF0E0EF58F04EC1
:10520000E491E150E23108F066C2F0E08827E45F03
:10521000F64D8F4F0C947D8D1E294A296A298F29BE
:10522000B4296B2BD929FC291F2A442A692A8E2AE2
:10523000B32AD82A6B2BFD2A222B472B84B5807CDE
:1052400009F449C287B51F928F9384E997E09F9331
:105250008F938E010F5F1F4F1F930F930E949C86A9
:105260000F900F900F900F900F900F90F801819179
:105270008F0181110CC081E064960FB6F894DEBFF7
:105280000FBECDBFDF91CF911F910F9108950E9466
:10529000301CECCF84B5807309F41DC288B51F9211
:1052A0008F9384E997E09F938F938E010F5F1F4F39
:1052B0001F930F930E949C860F900F900F900F905A
:1052C0000F900F90F80181918F018823A1F20E9425
:1052D000301CF8CF80918000807C09F4FCC1809163
:1052E0008800909189009F938F9384E997E09F9322
:1052F0008F938E010F5F1F4F1F930F930E949C8609
:105300000F900F900F900F900F900F90F8018191D8
:105310008F01882309F4AFCF0E94301CF7CF809112
:105320008000807309F4D7C180918A0090918B002E
:105330009F938F9384E997E09F938F938E010F5FE4
:105340001F4F1F930F930E949C860F900F900F90FA
:105350000F900F900F90F80181918F01882309F42D
:105360008ACF0E94301CF7CF809180008C7009F4A6
:10537000B2C180918C0090918D009F938F9384E9AE
:1053800097E09F938F938E010F5F1F4F1F930F9393
:105390000E949C860F900F900F900F900F900F908F
:1053A000F80181918F01882309F465CF0E94301C98
:1053B000F7CF8091B000807C09F48DC18091B3005B
:1053C0001F928F9384E997E09F938F938E010F5FD5
:1053D0001F4F1F930F930E949C860F900F900F906A
:1053E0000F900F900F90F80181918F01882309F49D
:1053F00042CF0E94301CF7CF8091B000807309F437
:105400006AC18091B4001F928F9384E997E09F93C3
:105410008F938E010F5F1F4F1F930F930E949C86E7
:105420000F900F900F900F900F900F90F8018191B7
:105430008F01882309F41FCF0E94301CF7CF809181
:105440009000807C09F447C1809198009091990068
:105450009F938F9384E997E09F938F938E010F5FC3
:105460001F4F1F930F930E949C860F900F900F90D9
:105470000F900F900F90F80181918F01882309F40C
:10548000FACE0E94301CF7CF80919000807309F40F
:1054900022C180919A0090919B009F938F9384E901
:1054A00097E09F938F938E010F5F1F4F1F930F9372
:1054B0000E949C860F900F900F900F900F900F906E
:1054C000F80181918F01882309F4D5CE0E94301C08
:1054D000F7CF809190008C7009F4FDC080919C0002
:1054E00090919D009F938F9384E997E09F938F9372
:1054F0008E010F5F1F4F1F930F930E949C860F908A
:105500000F900F900F900F900F90F80181918F01E5
:10551000882309F4B0CE0E94301CF7CF8091A00000
:10552000807C09F4D8C08091A8009091A9009F9335
:105530008F9384E997E09F938F938E010F5F1F4FA6
:105540001F930F930E949C860F900F900F900F90C7
:105550000F900F90F80181918F01882309F48BCE71
:105560000E94301CF7CF8091A000807309F4B3C073
:105570008091AA009091AB009F938F9384E997E06C
:105580009F938F938E010F5F1F4F1F930F930E9466
:105590009C860F900F900F900F900F900F90F80136
:1055A00081918F01882309F466CE0E94301CF7CFC9
:1055B0008091A0008C7009F48EC08091AC00909115
:1055C000AD009F938F9384E997E09F938F938E0113
:1055D0000F5F1F4F1F930F930E949C860F900F9099
:1055E0000F900F900F900F90F80181918F018823F9
:1055F00009F441CE0E94301CF7CF80912001807CBD
:1056000009F469C080912801909129019F938F939B
:1056100084E997E09F938F938E010F5F1F4F1F9335
:105620000F930E949C860F900F900F900F900F90F9
:105630000F90F80181918F01882309F41CCE0E94FC
:10564000301CF7CF80912001807309F444C0809111
:105650002A0190912B019F938F9384E997E09F9368
:105660008F938E010F5F1F4F1F930F930E949C8695
:105670000F900F900F900F900F900F90F801819165
:105680008F01882309F4F7CD0E94301CF7CF809159
:1056900020018C7001F180912C0190912D019F933C
:1056A0008F9384E997E09F938F938E010F5F1F4F35
:1056B0001F930F930E949C860F900F900F900F9056
:1056C0000F900F90F80181918F01882309F4D3CDB9
:1056D0000E94301CF7CF80E0CFCDEF92FF920F9366
:1056E0001F93CF93DF93CDB7DEB762970FB6F894D1
:1056F000DEBF0FBECDBF9091700786E090FF87E0C0
:1057000091FD8D7F92FF12C08B7FC9F562960FB617
:10571000F894DEBF0FBECDBFDF91CF911F910F91E7
:10572000FF90EF90089586EA92E00CC022EA32E002
:1057300041EA52E081FF02C044EA52E080FDF3CF2B
:1057400081EA92E03F932F935F934F939F938F93C0
:105750008AE893E19F938F93CE0101967C019F93FA
:105760008F930E949C860E94C11CC7010E94F6264E
:105770000FB6F894DEBF0FBECDBF81E0C7CF21EAE0
:1057800032E0D6CFAF92BF92CF92DF92EF92FF92EC
:105790000F931F93CF93DF93CDB7DEB72C970FB640
:1057A000F894DEBF0FBECDBFE62E20E7C22E22E06A
:1057B000D22E5C01F12C80E20E94301CF601819116
:1057C0006F010E94301C8AE30E94301CF501619138
:1057D0007191819191915F018E010F5F1F4F23E0C5
:1057E00041E00E947D818C01F80181918F01882325
:1057F00019F00E94301CF8CFF394EF10DCCF8AE050
:105800000E94301C2C960FB6F894DEBF0FBECDBFA1
:10581000DF91CF911F910F91FF90EF90DF90CF908C
:10582000BF90AF900895FF920F931F93CF93DF9394
:105830001F92CDB7DEB7F82E0AEC14E141E050E03C
:10584000B801CE0101960E94588689818F1108C047
:1058500081E00F90DF91CF911F910F91FF900895FC
:105860000F5F1F4F84E1023E180741F780E0F1CF40
:1058700085ED8093BC008091B10C9091B20CA09109
:10588000B30CB091B40C0796A11DB11D23E0B695E1
:10589000A795979587952A95D1F72091BC0024FD6F
:1058A00003C01092AF0C08954091B10C5091B20C0E
:1058B0006091B30C7091B40C452B462B472B69F3C8
:1058C0000097A105B10541F025E32A95F1F7000005
:1058D0000197A109B109E1CF8091B00C0C944A1550
:1058E0004F925F926F927F928F929F92AF92BF92F0
:1058F000CF92DF92EF92FF920F931F93CF93DF939C
:10590000CDB7DEB76A970FB6F894DEBF0FBECDBF36
:105910009A8F898F5B018A01DC01D6966D917D910A
:105920008D919C91D9970E94D1866B017C01F501E4
:1059300020813181428153810E9432870E94648E8E
:105940002B013C01D8012D913D914D915C91C701F6
:10595000B6010E9432870E94648E4B015C01C30134
:10596000B2010E94F98E698B7A8B8B8B9C8B683786
:1059700071058105910540F428E730E040E050E0F2
:10598000298B3A8B4B8B5C8BC501B4010E94F98E3D
:105990006D877E878F87988B6837710581059105A4
:1059A00040F488E790E0A0E0B0E08D879E87AF8765
:1059B000B88BE98DFA8DEE5BFF4F208131814281FA
:1059C000538129833A834B835C83CA01B9010E94C6
:1059D000D3862B013C0169897A898B899C890E9435
:1059E000D18669877A878B879C8720E030E0A90180
:1059F000C301B2010E94CC86882309F43BC1A701F0
:105A00009601C701B6010E9432874B015C012985CE
:105A10003A854B855C85CA01B9010E9432879B019A
:105A2000AC01C501B4010E94858D4B015C01A3014D
:105A30009201C301B2010E94868D9B01AC01C50198
:105A4000B4010E94808E0E94648E0E94F98E6D8344
:105A50007E838F83988769817A818B819C819095E1
:105A60008095709561957F4F8F4F9F4F0E94D38691
:105A70004B015C016D857E858F8598890E94D1865A
:105A800069837A838B839C8320E030E0A901C50180
:105A9000B4010E94CC86882309F4F0C029813A81A0
:105AA0004B815C81CA01B9010E9432876D8B7E8B6C
:105AB0008F8B988FA7019601C701B6010E9432878C
:105AC0009B01AC016D897E898F89988D0E94858D9F
:105AD0006B017C01A5019401C501B4010E94868D72
